{
  "contractName": "Chore",
  "abi": [
    {
      "inputs": [
        {
          "name": "s",
          "type": "address[]"
        },
        {
          "name": "description",
          "type": "string"
        },
        {
          "name": "r",
          "type": "uint256"
        },
        {
          "name": "a",
          "type": "address"
        }
      ],
      "payable": false,
      "stateMutability": "nonpayable",
      "type": "constructor"
    },
    {
      "constant": false,
      "inputs": [],
      "name": "getDesc",
      "outputs": [
        {
          "name": "",
          "type": "string"
        }
      ],
      "payable": false,
      "stateMutability": "nonpayable",
      "type": "function"
    },
    {
      "constant": false,
      "inputs": [],
      "name": "agreeToCreateChore",
      "outputs": [],
      "payable": false,
      "stateMutability": "nonpayable",
      "type": "function"
    },
    {
      "constant": false,
      "inputs": [],
      "name": "cancelChoreCreation",
      "outputs": [],
      "payable": false,
      "stateMutability": "nonpayable",
      "type": "function"
    },
    {
      "constant": false,
      "inputs": [
        {
          "name": "against",
          "type": "bool"
        }
      ],
      "name": "vote",
      "outputs": [],
      "payable": false,
      "stateMutability": "nonpayable",
      "type": "function"
    },
    {
      "constant": true,
      "inputs": [],
      "name": "countFinalVote",
      "outputs": [
        {
          "name": "",
          "type": "uint256"
        },
        {
          "name": "",
          "type": "uint256"
        }
      ],
      "payable": false,
      "stateMutability": "view",
      "type": "function"
    }
  ],
  "bytecode": "0x60806040523480156200001157600080fd5b50604051620011b0380380620011b0833981018060405281019080805182019291906020018051820192919060200180519060200190929190805190602001909291905050506000846001908051906020019062000071929190620001c3565b50600090505b84518110156200012c576080604051908101604052806000151515158152602001600015151515815260200160001515151581526020016000151515158152506000808784815181101515620000c957fe5b9060200190602002015173ffffffffffffffffffffffffffffffffffffffff1673ffffffffffffffffffffffffffffffffffffffff1681526020019081526020016000209060046200011d92919062000252565b50808060010191505062000077565b8260048190555081600260006101000a81548173ffffffffffffffffffffffffffffffffffffffff021916908373ffffffffffffffffffffffffffffffffffffffff16021790555083600390805190602001906200018c929190620002ff565b5060006005819055506000600660006101000a81548160ff0219169083151502179055506000600781905550505050505062000427565b8280548282559060005260206000209081019282156200023f579160200282015b828111156200023e5782518260006101000a81548173ffffffffffffffffffffffffffffffffffffffff021916908373ffffffffffffffffffffffffffffffffffffffff16021790555091602001919060010190620001e4565b5b5090506200024e919062000386565b5090565b82805482825590600052602060002090601f01602090048101928215620002ec5791602002820160005b83821115620002bb57835183826101000a81548160ff02191690831515021790555092602001926001016020816000010492830192600103026200027c565b8015620002ea5782816101000a81549060ff0219169055600101602081600001049283019260010302620002bb565b505b509050620002fb9190620003cc565b5090565b828054600181600116156101000203166002900490600052602060002090601f016020900481019282601f106200034257805160ff191683800117855562000373565b8280016001018555821562000373579182015b828111156200037257825182559160200191906001019062000355565b5b509050620003829190620003ff565b5090565b620003c991905b80821115620003c557600081816101000a81549073ffffffffffffffffffffffffffffffffffffffff0219169055506001016200038d565b5090565b90565b620003fc91905b80821115620003f857600081816101000a81549060ff021916905550600101620003d3565b5090565b90565b6200042491905b808211156200042057600081600090555060010162000406565b5090565b90565b610d7980620004376000396000f30060806040526004361061006d576000357c0100000000000000000000000000000000000000000000000000000000900463ffffffff16806313246d2b146100725780634b9f5c98146100a4578063644d8164146100d3578063d3df493514610163578063fcfc53101461017a575b600080fd5b34801561007e57600080fd5b50610087610191565b604051808381526020018281526020019250505060405180910390f35b3480156100b057600080fd5b506100d160048036038101908080351515906020019092919050505061034a565b005b3480156100df57600080fd5b506100e861055b565b6040518080602001828103825283818151815260200191508051906020019080838360005b8381101561012857808201518184015260208101905061010d565b50505050905090810190601f1680156101555780820380516001836020036101000a031916815260200191505b509250505060405180910390f35b34801561016f57600080fd5b506101786105fd565b005b34801561018657600080fd5b5061018f610a3c565b005b6000806000806000600660009054906101000a900460ff1615156101b457600080fd5b6000925060009150600090505b60018054905081101561033d576000806001838154811015156101e057fe5b9060005260206000200160009054906101000a900473ffffffffffffffffffffffffffffffffffffffff1673ffffffffffffffffffffffffffffffffffffffff1673ffffffffffffffffffffffffffffffffffffffff168152602001908152602001600020600281548110151561025357fe5b90600052602060002090602091828204019190069054906101000a900460ff161561027f576001830192505b60008060018381548110151561029157fe5b9060005260206000200160009054906101000a900473ffffffffffffffffffffffffffffffffffffffff1673ffffffffffffffffffffffffffffffffffffffff1673ffffffffffffffffffffffffffffffffffffffff168152602001908152602001600020600381548110151561030457fe5b90600052602060002090602091828204019190069054906101000a900460ff1615610330576001820191505b80806001019150506101c1565b8282945094505050509091565b600660009054906101000a900460ff16151561036557600080fd5b600015156000803373ffffffffffffffffffffffffffffffffffffffff1673ffffffffffffffffffffffffffffffffffffffff16815260200190815260200160002060028154811015156103b557fe5b90600052602060002090602091828204019190069054906101000a900460ff1615151480156104535750600015156000803373ffffffffffffffffffffffffffffffffffffffff1673ffffffffffffffffffffffffffffffffffffffff168152602001908152602001600020600381548110151561042f57fe5b90600052602060002090602091828204019190069054906101000a900460ff161515145b151561045e57600080fd5b80156104e05760016000803373ffffffffffffffffffffffffffffffffffffffff1673ffffffffffffffffffffffffffffffffffffffff16815260200190815260200160002060038154811015156104b257fe5b90600052602060002090602091828204019190066101000a81548160ff021916908315150217905550610558565b60016000803373ffffffffffffffffffffffffffffffffffffffff1673ffffffffffffffffffffffffffffffffffffffff168152602001908152602001600020600281548110151561052e57fe5b90600052602060002090602091828204019190066101000a81548160ff0219169083151502179055505b50565b606060038054600181600116156101000203166002900480601f0160208091040260200160405190810160405280929190818152602001828054600181600116156101000203166002900480156105f35780601f106105c8576101008083540402835291602001916105f3565b820191906000526020600020905b8154815290600101906020018083116105d657829003601f168201915b5050505050905090565b6000806000600115156000803373ffffffffffffffffffffffffffffffffffffffff1673ffffffffffffffffffffffffffffffffffffffff168152602001908152602001600020600081548110151561065257fe5b90600052602060002090602091828204019190069054906101000a900460ff16151514151561068057600080fd5b600015156000803373ffffffffffffffffffffffffffffffffffffffff1673ffffffffffffffffffffffffffffffffffffffff16815260200190815260200160002060018154811015156106d057fe5b90600052602060002090602091828204019190069054906101000a900460ff1615151415156106fe57600080fd5b600660009054906101000a900460ff16156109b35760016000803373ffffffffffffffffffffffffffffffffffffffff1673ffffffffffffffffffffffffffffffffffffffff168152602001908152602001600020600181548110151561076157fe5b90600052602060002090602091828204019190066101000a81548160ff021916908315150217905550600160076000828254019250508190555060026005548115156107a957fe5b0460075411156109ae5760009250600091505b600180549050821015610889576000806001848154811015156107db57fe5b9060005260206000200160009054906101000a900473ffffffffffffffffffffffffffffffffffffffff1673ffffffffffffffffffffffffffffffffffffffff1673ffffffffffffffffffffffffffffffffffffffff168152602001908152602001600020600181548110151561084e57fe5b90600052602060002090602091828204019190069054906101000a900460ff161561087c5782806001019350505b81806001019250506107bc565b82600781905550600260055481151561089e57fe5b048311156109ad576000600660006101000a81548160ff02191690831515021790555060006005819055506000600781905550600090505b6001805490508110156109ac5760806040519081016040528060001515151581526020016000151515158152602001600015151515815260200160001515151581525060008060018481548110151561092b57fe5b9060005260206000200160009054906101000a900473ffffffffffffffffffffffffffffffffffffffff1673ffffffffffffffffffffffffffffffffffffffff1673ffffffffffffffffffffffffffffffffffffffff16815260200190815260200160002090600461099e929190610c77565b5080806001019150506108d6565b5b5b610a37565b6080604051908101604052806000151515158152602001600015151515815260200160001515151581526020016000151515158152506000803373ffffffffffffffffffffffffffffffffffffffff1673ffffffffffffffffffffffffffffffffffffffff168152602001908152602001600020906004610a35929190610c77565b505b505050565b600080600015156000803373ffffffffffffffffffffffffffffffffffffffff1673ffffffffffffffffffffffffffffffffffffffff1681526020019081526020016000206000815481101515610a8f57fe5b90600052602060002090602091828204019190069054906101000a900460ff161515141515610abd57600080fd5b60016000803373ffffffffffffffffffffffffffffffffffffffff1673ffffffffffffffffffffffffffffffffffffffff1681526020019081526020016000206000815481101515610b0b57fe5b90600052602060002090602091828204019190066101000a81548160ff02191690831515021790555060016005600082825401925050819055506002600180549050811515610b5657fe5b046005541115610c735760009150600090505b600180549050811015610c3657600080600183815481101515610b8857fe5b9060005260206000200160009054906101000a900473ffffffffffffffffffffffffffffffffffffffff1673ffffffffffffffffffffffffffffffffffffffff1673ffffffffffffffffffffffffffffffffffffffff1681526020019081526020016000206000815481101515610bfb57fe5b90600052602060002090602091828204019190069054906101000a900460ff1615610c295781806001019250505b8080600101915050610b69565b816005819055506002600180549050811515610c4e57fe5b04821115610c72576001600660006101000a81548160ff0219169083151502179055505b5b5050565b82805482825590600052602060002090601f01602090048101928215610d0c5791602002820160005b83821115610cdd57835183826101000a81548160ff0219169083151502179055509260200192600101602081600001049283019260010302610ca0565b8015610d0a5782816101000a81549060ff0219169055600101602081600001049283019260010302610cdd565b505b509050610d199190610d1d565b5090565b610d4a91905b80821115610d4657600081816101000a81549060ff021916905550600101610d23565b5090565b905600a165627a7a72305820a42e89660f82951a49638abeff716f435a20d119e73f6f1b6c2a8f29c94b35dc0029",
  "source": "pragma solidity ^0.4.24;\ncontract Chore {\n    mapping(address => bool[]) signers; //maps housemate addresses to an array of 4 boolean values\n    address[] addressList; //array of all housemate addresses\n    address assignedPerson; //address of housemate tasked with completing this chore\n    string choreDescription;\n    uint reward; //points rewarded to assignedPerson for completing this chore\n    uint numberOfAgreed; //counts number of people agreeing that this chore is valid\n    bool enoughAgreed; //determines if numberOfAgreed is enough\n    uint numberOfCancelers; //counts number of people wishing to cancel the chore after the chore was deemed valid\n\n    constructor(address[] s, string description, uint r, address a) public {\n        addressList = s;\n        for(uint i = 0; i < s.length; i++) {\n            signers[s[i]] = [false, false, false, false]; //[hasAgreed, wantsToCancel, hasVotedFor, hasVotedAgainst]\n        }\n        reward = r;\n        assignedPerson = a;\n        choreDescription = description;\n        numberOfAgreed = 0;\n        enoughAgreed = false;\n        numberOfCancelers = 0;\n    }\n\n    function getDesc() public returns(string){\n        return choreDescription;\n    }\n\n    //function lets the msg.sender agree the chore is valid and then counts their vote\n    function agreeToCreateChore() public {\n        require(signers[msg.sender][0] == false);\n\n        signers[msg.sender][0] = true;\n        numberOfAgreed += 1;\n        //rechecks the numberOfAgreed in order to avoid race condition\n        if (numberOfAgreed > addressList.length / 2) {\n            uint numberOfAgreed2 = 0;\n            for(uint i = 0; i < addressList.length; i++) {\n                if (signers[addressList[i]][0]) {\n                    numberOfAgreed2++;\n                }\n            }\n            numberOfAgreed = numberOfAgreed2;\n            if (numberOfAgreed2 > addressList.length / 2) {\n                enoughAgreed = true;\n            }\n        }\n    }\n\n    //If enoughAgreed is false, this function takes back the user's chore validity vote\n    //Otherwise, this function lets the user vote to cancel the chore's validity\n    function cancelChoreCreation() public {\n        require(signers[msg.sender][0] == true);\n        require(signers[msg.sender][1] == false);\n\n        if (enoughAgreed) {\n            signers[msg.sender][1] = true;\n            numberOfCancelers += 1;\n            //rechecks the numberOfCancelers in order to avoid race condition\n            if (numberOfCancelers > numberOfAgreed / 2) {\n                uint numberOfCancelers2 = 0;\n                for(uint i = 0; i < addressList.length; i++) {\n                    if(signers[addressList[i]][1]) {\n                        numberOfCancelers2++;\n                    }\n                }\n                numberOfCancelers = numberOfCancelers2;\n                if (numberOfCancelers2 > numberOfAgreed / 2) {\n                    enoughAgreed = false;\n                    numberOfAgreed = 0;\n                    numberOfCancelers = 0;\n                    for(uint j = 0; j < addressList.length; j++) {\n                        signers[addressList[j]] = [false, false, false, false];\n                    }\n                }\n            }\n        }\n        else {\n            signers[msg.sender] = [false, false, false, false];\n            //doesn't decrement numberOfAgreed in order to prevent users from decrementing it too many times\n        }\n    }\n\n    //allows the user to vote if the assignedPerson has completed the chore or has not completed the chore\n    function vote(bool against) public {\n        require(enoughAgreed);\n        require(signers[msg.sender][2] == false && signers[msg.sender][3] == false);\n\n        if(against) {\n            signers[msg.sender][3] = true;\n        }\n        else {\n            signers[msg.sender][2] = true;\n        }\n    }\n\n    //counts the number of people who voted the chore was completed and the number of people who voted it was not\n    function countFinalVote() public view returns(uint, uint){\n        require(enoughAgreed);\n\n        uint forVoteCount = 0;\n        uint againstVoteCount = 0;\n        for(uint i = 0; i < addressList.length; i++) {\n            if(signers[addressList[i]][2]) {\n                forVoteCount += 1;\n            }\n            if(signers[addressList[i]][3]) {\n                againstVoteCount += 1;\n            }\n        }\n        return (forVoteCount, againstVoteCount);\n    }\n}\n",
  "sourcePath": "/Users/varunsathyan/Desktop/B@B/ChoreChain/contracts/Chore.sol",
  "compiler": {
    "name": "solc",
    "version": "0.4.24+commit.e67f0147.Emscripten.clang"
  },
  "schemaVersion": "2.0.1",
  "updatedAt": "2018-11-05T00:45:35.330Z"
}