{
  "contractName": "Scheduler",
  "abi": [
    {
      "inputs": [
        {
          "name": "c",
          "type": "uint256[]"
        },
        {
          "name": "h",
          "type": "address[]"
        }
      ],
      "payable": false,
      "stateMutability": "nonpayable",
      "type": "constructor"
    },
    {
      "constant": false,
      "inputs": [
        {
          "name": "h",
          "type": "address"
        }
      ],
      "name": "identifyHouseMate",
      "outputs": [
        {
          "name": "",
          "type": "string"
        }
      ],
      "payable": false,
      "stateMutability": "nonpayable",
      "type": "function"
    },
    {
      "constant": false,
      "inputs": [
        {
          "name": "c",
          "type": "uint256"
        }
      ],
      "name": "identifyChore",
      "outputs": [
        {
          "name": "",
          "type": "string"
        }
      ],
      "payable": false,
      "stateMutability": "nonpayable",
      "type": "function"
    },
    {
      "constant": false,
      "inputs": [],
      "name": "shuffle",
      "outputs": [],
      "payable": false,
      "stateMutability": "nonpayable",
      "type": "function"
    }
  ],
  "bytecode": "0x60806040523480156200001157600080fd5b5060405162000b2238038062000b2283398101806040528101908080518201929190602001805182019291905050508160049080519060200190620000589291906200024b565b508060039080519060200190620000719291906200029d565b5060026003805490508115156200008457fe5b04600681905550620000f76004805480602002602001604051908101604052809291908181526020018280548015620000dd57602002820191906000526020600020905b815481526020019060010190808311620000c8575b5050505050620000ff640100000000026401000000009004565b50506200039a565b6000806060600080600060038054905087518115156200011b57fe5b049550600094505b6003805490508510156200024257858502925085830191506001600380549050038514156200015457600187510391505b8290505b81811015620001a55786818151811015156200017057fe5b9060200190602002015184828151811015156200018957fe5b9060200190602002018181525050808060010191505062000158565b83600080600388815481101515620001b957fe5b9060005260206000200160009054906101000a900473ffffffffffffffffffffffffffffffffffffffff1673ffffffffffffffffffffffffffffffffffffffff1673ffffffffffffffffffffffffffffffffffffffff1681526020019081526020016000209080519060200190620002339291906200024b565b50848060010195505062000123565b50505050505050565b8280548282559060005260206000209081019282156200028a579160200282015b82811115620002895782518255916020019190600101906200026c565b5b5090506200029991906200032c565b5090565b82805482825590600052602060002090810192821562000319579160200282015b82811115620003185782518260006101000a81548173ffffffffffffffffffffffffffffffffffffffff021916908373ffffffffffffffffffffffffffffffffffffffff16021790555091602001919060010190620002be565b5b50905062000328919062000354565b5090565b6200035191905b808211156200034d57600081600090555060010162000333565b5090565b90565b6200039791905b808211156200039357600081816101000a81549073ffffffffffffffffffffffffffffffffffffffff0219169055506001016200035b565b5090565b90565b61077880620003aa6000396000f300608060405260043610610057576000357c0100000000000000000000000000000000000000000000000000000000900463ffffffff1680632520bf041461005c5780636d3831ab146100735780639508c4a414610119575b600080fd5b34801561006857600080fd5b506100716101d5565b005b34801561007f57600080fd5b5061009e60048036038101908080359060200190929190505050610384565b6040518080602001828103825283818151815260200191508051906020019080838360005b838110156100de5780820151818401526020810190506100c3565b50505050905090810190601f16801561010b5780820380516001836020036101000a031916815260200191505b509250505060405180910390f35b34801561012557600080fd5b5061015a600480360381019080803573ffffffffffffffffffffffffffffffffffffffff1690602001909291905050506104b5565b6040518080602001828103825283818151815260200191508051906020019080838360005b8381101561019a57808201518184015260208101905061017f565b50505050905090810190601f1680156101c75780820380516001836020036101000a031916815260200191505b509250505060405180910390f35b6000806000600360008154811015156101ea57fe5b9060005260206000200160009054906101000a900473ffffffffffffffffffffffffffffffffffffffff169250600191505b6003805490508210156102cd5760038281548110151561023857fe5b9060005260206000200160009054906101000a900473ffffffffffffffffffffffffffffffffffffffff1690508260038381548110151561027557fe5b9060005260206000200160006101000a81548173ffffffffffffffffffffffffffffffffffffffff021916908373ffffffffffffffffffffffffffffffffffffffff160217905550809250818060010192505061021c565b82600360008154811015156102de57fe5b9060005260206000200160006101000a81548173ffffffffffffffffffffffffffffffffffffffff021916908373ffffffffffffffffffffffffffffffffffffffff16021790555061037f600480548060200260200160405190810160405280929190818152602001828054801561037557602002820191906000526020600020905b815481526020019060010190808311610361575b5050505050610599565b505050565b60606001600083815260200190815260200160002060009054906101000a900473ffffffffffffffffffffffffffffffffffffffff1673ffffffffffffffffffffffffffffffffffffffff1663644d81646040518163ffffffff167c0100000000000000000000000000000000000000000000000000000000028152600401600060405180830381600087803b15801561041d57600080fd5b505af1158015610431573d6000803e3d6000fd5b505050506040513d6000823e3d601f19601f82011682018060405250602081101561045b57600080fd5b81019080805164010000000081111561047357600080fd5b8281019050602081018481111561048957600080fd5b81518560018202830111640100000000821117156104a657600080fd5b50509291905050509050919050565b6060600260008373ffffffffffffffffffffffffffffffffffffffff1673ffffffffffffffffffffffffffffffffffffffff1681526020019081526020016000206001018054600181600116156101000203166002900480601f01602080910402602001604051908101604052809291908181526020018280546001816001161561010002031660029004801561058d5780601f106105625761010080835404028352916020019161058d565b820191906000526020600020905b81548152906001019060200180831161057057829003601f168201915b50505050509050919050565b6000806060600080600060038054905087518115156105b457fe5b049550600094505b6003805490508510156106d157858502925085830191506001600380549050038514156105eb57600187510391505b8290505b8181101561063857868181518110151561060557fe5b90602001906020020151848281518110151561061d57fe5b906020019060200201818152505080806001019150506105ef565b8360008060038881548110151561064b57fe5b9060005260206000200160009054906101000a900473ffffffffffffffffffffffffffffffffffffffff1673ffffffffffffffffffffffffffffffffffffffff1673ffffffffffffffffffffffffffffffffffffffff16815260200190815260200160002090805190602001906106c39291906106da565b5084806001019550506105bc565b50505050505050565b828054828255906000526020600020908101928215610716579160200282015b828111156107155782518255916020019190600101906106fa565b5b5090506107239190610727565b5090565b61074991905b8082111561074557600081600090555060010161072d565b5090565b905600a165627a7a72305820e62b2266a9f1ae849125914ac7078551d404021efb8b87e68b432d10cc121ba50029",
  "source": "pragma solidity ^0.4.24;\nimport \"./Chore.sol\";\ncontract Scheduler{\n    mapping(address => uint[]) weeklyassignments; //housemates to chores\n    mapping(uint => Chore) choreLookup; //identify chore from number id\n    mapping(address => HouseMate) housemateLookup; //identify housemate from string id\n    address[] housemates;\n    uint[]chores;\n    Chore currentEvent;\n    uint majority;\n\n    struct HouseMate{\n        string id;\n        string pub_name;\n        uint points;\n    }\n\n    constructor(uint[] c, address[] h) public {\n        chores = c;\n        housemates = h;\n        majority = housemates.length / 2;\n        assignChores(chores);\n\n    }\n\n    function assignChores(uint[] c) private {\n        uint choresPerPerson = c.length / housemates.length;\n        for(uint hM = 0; hM < housemates.length; hM++){\n            uint[] memory choreList;\n            uint start = hM * choresPerPerson;\n            uint end = start + choresPerPerson;\n            //case of number of chores and number of housemates not in perfect alignment\n            if(hM == housemates.length -1){\n                end = c.length-1;\n            }\n            for(uint i = start; i < end; i++){\n                choreList[i] = c[i];\n            }\n            weeklyassignments[housemates[hM]] = choreList;\n        }\n    }\n\n    function identifyHouseMate(address h) public returns(string){\n        return housemateLookup[h].pub_name;\n    }\n\n    function identifyChore(uint c) public returns(string){\n        return choreLookup[c].getDesc();\n    }\n\n    function shuffle() public{\n        address prev = housemates[0];\n        for(uint i = 1; i < housemates.length; i++){\n            address temp = housemates[i];\n            housemates[i] = prev;\n            prev = temp;\n        }\n        housemates[0] = prev;\n        assignChores(chores);\n    }\n\n\n}\n",
  "sourcePath": "/Users/varunsathyan/Desktop/B@B/ChoreChain/contracts/Scheduler.sol",
  "compiler": {
    "name": "solc",
    "version": "0.4.24+commit.e67f0147.Emscripten.clang"
  },
  "schemaVersion": "2.0.1",
  "updatedAt": "2018-11-05T00:45:35.326Z"
}